:020000040800F2
:10000000880600208901000891010008930100087A
:100010009501000897010008990100080000000000
:100020000000000000000000000000009B0100082C
:100030009D010008000000009F010008050600085F
:10004000A3010008A3010008A3010008A301000800
:10005000A3010008A3010008A5020008A3010008ED
:10006000A3010008A3010008A3010008A3010008E0
:10007000A3010008A3010008A3010008A3010008D0
:10008000A3010008A3010008A3010008A3010008C0
:10009000A3010008A3010008A3010008A3010008B0
:1000A000A3010008DD060008A3010008A301000861
:1000B00025070008410700085D070008A3010008A4
:1000C000A3010008A3010008A3010008A301000880
:1000D000A3010008A3010008A3010008A301000870
:1000E000A3010008A3010008A301000800F002F822
:1000F00000F03AF80AA090E8000C82448344AAF188
:100100000107DA4501D100F02FF8AFF2090EBAE885
:100110000F0013F0010F18BFFB1A43F0010318473B
:10012000440D0000640D0000103A24BF78C878C167
:10013000FAD8520724BF30C830C144BF04680C60ED
:10014000704700000023002400250026103A28BF35
:1001500078C1FBD8520728BF30C148BF0B60704739
:100160001FB51FBD10B510BD00F031F81146FFF7E7
:10017000F7FF00F0A1FC00F04FF803B4FFF7F2FF27
:1001800003BC00F057F800000948804709480047C1
:10019000FEE7FEE7FEE7FEE7FEE7FEE7FEE7FEE737
:1001A000FEE7FEE704480549054A064B7047000094
:1001B00085060008ED000008880000208806002061
:1001C00088020020880200207047704770477546FB
:1001D00000F02CF8AE4605006946534620F00700B3
:1001E000854618B020B5FFF7DDFFBDE820404FF091
:1001F00000064FF000074FF000084FF0000BAC4630
:10020000ACE8C009ACE8C009ACE8C009ACE8C0097A
:1002100021F007018D46704710B50446AFF300800A
:100220002046BDE81040FFF7A8BF00000048704717
:100230000800002001491820ABBEFEE7260002009E
:100240007047000080B5EFF3108072B641F21800DD
:10025000C4F2020001684FF6F07241F00101016042
:100260000820C4F2010001681140016001680160CA
:10027000D0F8F81341F00101C0F8F813D0F80014D9
:1002800041F00101C0F8001440F20C40C4F201003A
:10029000016841F00101016000F0ECFB00F0D2FBCD
:1002A00062B680BD40F21440C4F201000168C90783
:1002B00008BF704740F27001C2F200010A78022ABA
:1002C00013D0012A1FD1D0F8F423D20719D0242249
:1002D000C4F200020023138002220A704FF0804112
:1002E0000A8842F001020A800DE0D0F8F423D20718
:1002F00007D14FF08042138823F0010313800322BB
:1003000000E000220A70016841F0010101607047BD
:1003100010B540F6000CC4F2010C60450ED041F25D
:10032000000CC4F2010C60450BD040F6004CC4F246
:10033000010C604511D14FF0080C04E04FF0040CA3
:1003400001E04FF0100C41F2180EC4F2020EDEF87C
:10035000004044EA0C04CEF80040072901D8890087
:1003600003E0083989B2890004304FF00F0CD0F84F
:1003700000E00CFA01F42EEA040404608A4041F023
:10038000020103FA01F1036811431943016010BD32
:100390000122C36802FA01F15940C16070470000B0
:1003A00022B1012A18BF70470C3000E0143001223E
:1003B000036802FA01F119430160704740F26800D6
:1003C000C2F200000068704740F26C01C2F2000106
:1003D0000860704710B540F27004C2F20004207843
:1003E000032818BF10BD2420C4F20000008800F0CC
:1003F0001AFC4CF29C4246F67203CBF22002C3F682
:10040000917300F023FC00F0DDFBFFF7DDFF00201F
:10041000207010BD10B54FF0804048214FF6FF729C
:1004200000F0AAF9FFF70EFF40F60004C4F2010441
:100430002046002100220223FFF76AFF2046012107
:1004400003220023FFF764FF10BD000010B540F643
:100450000C04C4F20104206840F002002060142063
:1004600000F04AF920684FF6FD710840206040F224
:100470007000C2F200000121017010BD80B500F0D3
:1004800001F880BD82B041F204000021C4F20200F4
:100490000191009150F8041C41F4803140F8041C93
:1004A00050F8041C01F400310091019901310191CF
:1004B000009919B90199B1F5A06FF1D150F8041C58
:1004C000890354BF0021012100910099012936D1EF
:1004D00042F20001C4F202010A6842F010020A600E
:1004E0000A6822F007020A600A6842F002020A6003
:1004F0000168016001680160016841F48061016088
:10050000016821F47C110160016841F4E811016087
:1005100050F8041C41F0807140F8041C50F8041C91
:100520008901FBD5016821F003010160016841F0F8
:1005300002010160016801F00C010829FAD102B042
:100540007047000080B541F20400C4F2020050F888
:10055000041C41F4803140F8041C00BF50F8041C16
:100560008903FBD5826942F2000142F08052C4F255
:10057000020182610A6842F012020A600A68920669
:10058000FCD5016841F4E01141F48061016001682B
:1005900041F48031016050F8041C41F0807140F852
:1005A000041C00BF50F8041C8901FBD5016841F010
:1005B0000201016001680907FCD500F063F800F052
:1005C00029F840F20000C2F20000006844F6D3515E
:1005D000C1F26201A0FB0101880900F001F880BDB1
:1005E000B0B501380024B4EB106F18BFB0BD4EF2A7
:1005F0001005CEF20005686000F044FA0720AC60F8
:100600002860B0BD40F26800C2F20000016801310C
:100610000160704741F20400C4F20200016801F079
:100620000C01082941F20021C0F27A0117D10268B9
:100630000368C2F38342DB0302F1020205D440F6F1
:100640000011C0F23D01514309E003689B0301D44E
:10065000514304E040F60011C0F23D01514340F225
:100660000002C2F200021160006840F65261C0F35D
:100670000310C0F60001085C116821FA00F0106058
:100680007047000080B541F20000C4F2020001682A
:10069000002241F0010101604168CFF6FF021140E4
:1006A000416001684FF6FF72CFF6F66211400160BB
:1006B000016821F480210160416821F4FE0141605C
:1006C0004FF41F018160FFF7D9FE4EF60850CEF2BD
:1006D00000004FF00061016080BD000080B542F66F
:1006E0001040C4F20100018821F0010120F8101926
:1006F00000F090F880BD00002421C4F20001002227
:100700000A804FF08042138843F00103138000BF3A
:100710000A888242FCD34FF08040018821F0010119
:100720000180704780B51020C4F20000018821F0DC
:10073000010101804FF0804000F06CF880BD0000A6
:1007400080B540F21040C4F20000018821F00101A0
:1007500020F8101900F05EF880BD000080B540F66A
:100760001000C4F20000018821F0010120F81019E6
:1007700000F050F880BD000040F2FF73C4F20003A7
:10078000984211DCB0F1804F25D040F20043C4F212
:100790000003984232D141F21C0CC4F2020CDCF886
:1007A000003043F0020327E040F60003C4F20003E8
:1007B000984219D042F60043C4F2010398421DD179
:1007C00041F21C0CC4F2020C5CF8043C43F40063DC
:1007D0004CF8043C12E041F21C0CC4F2020CDCF8B0
:1007E000003043F0010307E041F21C0CC4F2020C9C
:1007F000DCF8003043F00403CCF800300139018507
:10080000511E8185018841F001010180018AC907DB
:10081000FCD0704780B5014641F20000C4F20100EF
:1008200000F5E052914200D080BD40F28401C2F256
:1008300000010A680132B2F57A7F0A6038BF80BDD4
:1008400000220A600D21FFF7A3FD80BDB0B542F67E
:10085000004EC4F2010E40F6000C7045C4F2000CCC
:1008600012D060451BD040F20044C4F20004A04204
:100870001DD0B0F1804F22D141F21C04C4F2020419
:10088000256845F0010519E041F21C04C4F2020498
:1008900054F8045C45F4006544F8045C0FE041F250
:1008A0001C04C4F20204256845F0040506E041F288
:1008B0001C04C4F20204256845F0020525600139D4
:1008C0000185511E8185002181848189704541F017
:1008D00001018181018841F0010101800DD0B0F159
:1008E000804F0CD060450CD040F20041C4F20001B2
:1008F000884218BFB0BD1D2404E0192402E01C2466
:1009000000E01E242046194600F0C4F8204600F0FE
:10091000A1F8B0BD80B540F2FF7CC4F2000C604588
:1009200041F21C0CC4F2020C0DDCB0F1804F1DD062
:1009300040F2004EC4F2000E704522D1DCF800E017
:100940004EF0020E1BE040F6000EC4F2000E7045A1
:1009500011D042F6004EC4F2010E704511D15CF880
:1009600004EC4EF4006E4CF804EC0AE0DCF800E015
:100970004EF0010E03E0DCF800E04EF0040ECCF87F
:1009800000E05CF804EC013A4EF0010E4CF804EC87
:1009900002855A1E0139828500220329828425D8C6
:1009A000DFE801F0020A1119018C602241F0010117
:1009B000018400F1180116E0018C41F0100101845E
:1009C00000F118010DE0018C602241F48071018476
:1009D00000F11C0107E0018C41F48051018400F119
:1009E0001C014FF4C0420B881A430A80018841F071
:1009F00001010180018AC907FCD080BD80B5A1F149
:100A0000010EB0F82CC0BEF1030F88BF80BD48F2C4
:100A10001F510CF1010CC5F2EB11ACFB011359098C
:100A20005143DFE80EF0020B05083430018080BD31
:100A30003C30018080BD4030018080BD3830018075
:100A400080BD00004EF20010CEF200004021016097
:100A500070470000002848BF704700F01F010122C6
:100A600002FA01F14EF200124009CEF2000242F801
:100A7000201070474EF20640CEF2000010210170A7
:100A8000704700004EF62350CEF20000F0210170B6
:100A9000704700004EF6145300F00F02CEF2000330
:100AA00009011A4400F16043B0F1FF3FC8BF03F5EC
:100AB000644211707047000082B0FFF743FDFFF7FA
:100AC000A9FC42F60045C4F20105A5F5E0500D2150
:100AD000022200230024FFF71BFC2846482140F295
:100AE000E73201230126FFF7B1FE40F27408A5F5B5
:100AF0000057C2F20008404639460E222B460096A7
:100B000000F056F82846012148224FF47A73FFF787
:100B100001FFA5F51050082103220223FFF7F8FB7F
:100B200038460E2103220023FFF7F2FB4046012145
:100B3000322200F00FF801E0FFF74CFCFFF73EFC1B
:100B4000001BB0F5FA7FF7D9FFF780FCFFF736FC02
:100B50000446F1E7B0B51546022904460FD0012935
:100B60001AD0002918BFB0BD2068A1880022FFF765
:100B700017FCA068A1890022FFF740FFB0BD2068E4
:100B8000A1880122FFF70CFCA068A189C5F16402CD
:100B900092B2FFF733FFB0BD2068A1880122FFF7B2
:100BA000FFFBA068A1892A46FFF728FFB0BD00001F
:100BB000DDF800C00160002182808360A0F80CC0D5
:100BC000C181704721F0004201F00043A2F1605260
:100BD000B2F5801F28BFD2F17F6C0BD95FEA001CF1
:100BE00043EAC20242EB507018BF704728BF20F0A2
:100BF00001007047B2F5801FBCBF184670474FEA2E
:100C0000410C1CF5001F02D2084600F01DB970B55A
:100C100000F0C6F800000089FFF7F6BF4FF0004073
:100C2000A0F580007047B0FA80F310FA03F10AD003
:100C3000C3F11D0303F580634FEA03524FEA4150AD
:100C400002EBD12170474FF00000704770B5DFF81C
:100C500048C11CEA111E1EBF1CEA13159EEA0C0FA8
:100C600095EA0C0F00F06F8081EA03044EEAD47E0F
:100C7000AE4421EA4C1123EA4C1341F4801143F4B1
:100C80008013AEF17F7EA1FB024CA0FB03653619F9
:100C900055EB0C05A1FB034C4CF10003A0FB021C1F
:100CA00016EB0C06654153F10003094218BF46F0EC
:100CB000010613F4007F0BD14FEA03314FEA0530F0
:100CC00041EA155140EA165034036FF003020AE07E
:100CD0004FEAC3214FEAC52041EA555140EA565038
:100CE000F4026FF0020202EB2E4201EB025585EA9C
:100CF000CE710AD05FEA440C18BF24F0004450F1D2
:100D0000000041F1000120EAD47040F2FE7C62450F
:100D100000D270BDA84214BF4FF080444FF0404451
:100D2000002E08BF0024BEF1806FA8BFA1F1C04112
:100D3000BDE8704080F2828001F1C04101F00041C5
:100D40004FF0000070470CEA13159EEA0C0F18BF15
:100D500095EA0C0F06D081EA030E4FF000000EF06A
:100D6000004170BD00F01CF88900013E00F007B89A
:100D700000F009B84FEA430C5FEA5C5C08D081EAF6
:100D8000030100F05BB84FEA410C5FEA5C5CF6D10E
:100D900002494FF0000070470000FF070000F87F95
:100DA0000EF1020E2EF0030E5EF8046B364205D4EF
:100DB000012A43EB030515F5001F12D8012841EB6A
:100DC000010C1CF5001F0CD80ED14FEAD17C0CEBA6
:100DD0004C0C0CF1020C15F5001F08BF4CEBD37C3A
:100DE00004E04FF0080C01E04FEAD37C0CEB4C051B
:100DF00026FA05F606F00706B6F1040C06D20EEB4D
:100E0000860CBDE870404CF0010C6047DFE80CF048
:100E1000090B02024FF00041A1F500214FF0000044
:100E200070BD19461046012851EB010418BFD4F5D6
:100E3000001484BF002001F0004170BD0808A0F537
:100E400000114FEA31017047FF2141EAD050C0053F
:100E500070470000000000000000010203040607C4
:100E600008090000880E00080000002008000000AB
:100E700028010008900E00080800002080060000ED
:100E8000440100080000000000A24A040000000025
:04000005080000ED02
:00000001FF
