:020000040800F2
:10000000B8060020350200083D0200083F02000843
:1000100041020008430200084502000800000000F9
:10002000000000000000000000000000470200087F
:1000300049020008000000004B020008BD1800083B
:100040004F0200084F0200084F0200084F0200084C
:100050004F0200084F020008211400084F02000858
:100060004F0200084F0200084F0200084F0200082C
:100070004F0200084F0200084F0200084F0200081C
:100080004F0200084F0200084F0200084F0200080C
:100090004F0200084F0200084F0200084F020008FC
:1000A0004F020008951900084F0200084F0200088F
:1000B000B1190008CD190008E91900084F0200081D
:1000C0004F0200084F0200084F0200084F020008CC
:1000D0004F0200084F0200084F0200084F020008BC
:1000E0004F0200084F0200084F02000800F002F81B
:1000F00000F090F80AA090E8000C82448344AAF132
:100100000107DA4501D100F085F8AFF2090EBAE82F
:100110000F0013F0010F18BFFB1A43F0010318473B
:100120000C2E00002C2E0000103A24BF78C878C195
:10013000FAD8520724BF30C830C144BF04680C60ED
:10014000704700000023002400250026103A28BF35
:1001500078C1FBD8520728BF30C148BF0B60704739
:100160006E2900F05981702900F09B82662902F007
:100170005286652902F04F86672902F04C86612974
:1001800002F04B8603681B0A28BF41F080016929F1
:1001900000F00681642900F00381752900F00081D8
:1001A0006F2900F02982782900F06782E92900F0A0
:1001B000C381E42900F0C081F52900F0BD81EF2959
:1001C00000F02682F82900F066820368DB0928BF68
:1001D00041F08001632900F06787732900F06C8784
:1001E000E32900F07787F32900F07C87002070472F
:1001F0001FB500F0CDFF04000020002102F06AFBD3
:10020000401C60600020002102F04EFBE0601FBD3A
:1002100010B510BD00F08EFF1146FFF7E9FF01F0A9
:1002200053FE01F06BF803B4FFF7F2FF03BC01F0DB
:10023000B3F800000948804709480047FEE7FEE799
:10024000FEE7FEE7FEE7FEE7FEE7FEE7FEE7FEE786
:1002500004480549054A064B704700003D1900084F
:10026000ED000008B8000020B8060020B802002009
:10027000B80200201CB50C46064B7B446946009032
:10028000204600F0E2F804460020694600F0F0F84D
:1002900020461CBDF301000010B5431C02E010F81D
:1002A000011B71B18107FAD14FF0013202C88C1ADB
:1002B0008C4314EAC211F9D0C01A0A0603D0C01E3A
:1002C00010BDC01A10BD0A0401D0801E10BD090265
:1002D000FCD0401E10BD70477047704770B5044693
:1002E00085690068C10601D5302600E02026C007D8
:1002F00007D070BDD4E9012130469047206A401CE8
:1003000020626D1EF6D570BD70B504468569007813
:10031000C00707D170BDD4E9012120209047206A91
:10032000401C20626D1EF6D570BD09684A0501D5D6
:1003300040B27047C905FCD500B2704709684A054C
:1003400001D5C0B27047C905FCD580B2704770B501
:100350000C460546012A05D02878800600D5EA69B2
:10036000002302E0012305E05B1C934202D2E05C23
:100370000028F9D1A869E618C01AA861286A1844AB
:1003800028622846FFF7AAFF04E0D5E9012114F806
:10039000010B9047B442F8D32846FFF7B5FF70BD74
:1003A0002DE9F0410646002410687529314616A54E
:1003B00010D0FFF7BAFF002802DA404213A507E089
:1003C00031688A0701D512A502E0490704D511A5B5
:1003D000012401E0FFF7B2FF00210A2206F1240701
:1003E00009E0B0FBF2FCB0FBF2F302FB1C00303082
:1003F00078541846491C0028F3D123462A46304633
:10040000BDE8F04100F061BA000000002D000000DE
:100410002B0000002000000011680268006A5305EC
:1004200001D508700AE0D30501D5088006E013065F
:1004300003D5C217C1E9000200E00860012070473F
:1004400001694A1C02610878704700B58FB0CDE998
:1004500001310021059105497944CDE90310114688
:10046000684600F029F90FB000BD0000E5FFFFFF6E
:100470000A6802F8010B0A60704700002DE9FF5F6F
:1004800015468A460446DFF8AC80F8440027D8E9D0
:1004900000103E46CDE9001010E03AF816106A460A
:1004A00002A800F023FE411C07D02178890603D55D
:1004B000E269391891420DD80744761C20788006ED
:1004C00002D5E069B84205DDAE42E6DB3AF8160037
:1004D0000028E2D1A069C01BA0612046FFF7FEFE04
:1004E000D8E90010CDE90010002017E03AF8181004
:1004F0006A4602A800F0FAFDB0F1FF3F81460BD03A
:1005000000250DF1080B05E0D4E901211BF80500D9
:1005100090476D1C4D45F7D308F10100B04280466D
:10052000E4DB206A384420622046FFF7EDFEBDE898
:10053000FF9F0000922900002DE9F0418046D21D66
:1005400022F007020025D2E90002F52915A614D0F1
:10055000011E72F1000106DA0023D0EB030063EB09
:10056000020211A608E0D8F800108B0701D50FA6EB
:1005700002E0490701D50EA601251146002408F125
:10058000240704E000F05CF930323A55641C50EA6C
:100590000102F7D12B46324621464046BDE8F041E4
:1005A00000F093B9000000002D0000002B000000B7
:1005B0002000000030B4002100F1240408E002F023
:1005C0000705D208303542EA4372DB086554491CFE
:1005D00052EA0305F3D10468002310A2250708D5C9
:1005E00004F020040C4304D0C46901230CA2641E4F
:1005F000C46130BC00F069B910B5044621461068EA
:10060000FFF79CFE02462046BDE810400023D1E7DC
:10061000D21D22F00701D1E90023CBE70000000042
:1006200030000000F0B40D460188090502D5214CC8
:100630007C4402E01F4C7C440E34002100F124066F
:1006400008E002F00F071209E75D42EA03721B0996
:100650007754491C52EA0307F3D1027800231207AA
:1006600004D5702D06D009B1022311342246F0BC06
:1006700000F02BB901231034F8E770B504460D469D
:1006800021461068FFF75AFE024629462046BDE87B
:1006900070400023C6E7D21D22F00703D3E90023F0
:1006A000C0E70368126843F0200303600823C361B6
:1006B0000023B7E7F42700002DE9F05F89460446E0
:1006C0004FF0000ADFF874B1FB44C0F820A02046C8
:1006D000E1688847002874D0252806D0D4E9012194
:1006E0009047206A401C2062F1E700265F462046C2
:1006F000E16888472028054607DB312D05D27819A7
:1007000010F8200C08B10643F1E7B00701D526F038
:100710000406C4F81CA00027C4F818A02A2D09D08C
:10072000284602F0B9F838B304EB8708303DC8F822
:10073000185019E059F8041B204604EB8702916118
:10074000E1688847012F054618D1E069002820DAC2
:1007500026F020061DE0D8F8180000EB800005EB1D
:1007600040003038C8F818002046E1688847054640
:1007700002F092F80028EED1012F0AD02E2D08D1D8
:100780002046E16888477F1C0546022F46F0200678
:10079000C4DBA069002803DA404246F00106A061EC
:1007A000F00701D026F010066C2D0BD0682D09D073
:1007B0004C2D39D06A2D35D0742D35D07A2D33D0CB
:1007C00016E038E0E1682F4620468847B8420546E3
:1007D00009D16C2F26D04FF48060E1680643204693
:1007E0008847054604E06C2F1AD04FF4807006430A
:1007F0000DB3A5F14100192802D8203546F4006652
:100800004A462946204626604E46FFF7A9FC80B19D
:1008100001280BD0F61D26F0070000F1080956E765
:100820004020E4E78020D8E70020D6E706F104095D
:100830004DE7284652E7206ABDE8F09F8427000074
:1008400030B5B0F10A0271F100034FEA900E4EEAA2
:10085000817EB0EB0E0061EB91014FEA101E4EEA73
:10086000017E10EB0E0041EB11114FEA102E4EEA03
:10087000016E10EB0E0041EB11214FEA104E4EEAD3
:10088000014E10EB0E0041EB1141401841F1000107
:100890004FEAD00040EA41704FEAD1014FEA8104AB
:1008A00044EA907410EB800544EB01046D1944EBAD
:1008B0000404521BA3414FF0000348BF0A3200D585
:1008C00030BD401C41F1000130BD2DE9F0470D461F
:1008D00099469246044600F124080168880604D52A
:1008E000E06921F01001216000E00120A84201DD53
:1008F000471B00E00027A1697A1902EB0900081ADA
:10090000A0612078C00602D42046FFF7E7FC00264D
:1009100008E0D4E901211AF806009047206A401C3B
:10092000761C20624E45F4DB2078C0060AD52046AE
:10093000FFF7D4FC06E0D4E9012130209047206A7B
:10094000401C2062381EA7F10107F4DC07E0D4E95F
:10095000012118F805009047206A401C2062281EDB
:10096000A5F10105F3DC2046FFF7CEFC2078000658
:1009700002D50220BDE8F0870120FBE72DE9FF4FFB
:100980000C461E464FF0FF378BB0D2E90001DDF870
:1009900060800A908A46C1F30A5505B93D46002198
:1009A00008464FF00000BAF1000F00F4400005DAED
:1009B00000EB80004FF4400101EA50004FEA9059EB
:1009C000B9F1010F00DDB9460A9850EA4A000ED08D
:1009D00044F61050A5F2FF3545432F14B8F1000F2F
:1009E0001ED07542291E1EDDC9F100021CE0B8F1BF
:1009F000010F4FF0000001D0302103E0F24305E089
:100A00002154401CB042FBDB30460022002121541F
:100A10000B99C1F80880C1E900200FB0BDE8F08F44
:100A2000BD1B6D1CDEE74A4600DA694206A800F0ED
:100A3000F3FB06AB93E8070003AB83E807005046DF
:100A40000A9901F04DFB8DE80700A0F500501F3812
:100A500000900398002D0ADD42F21F014A46084427
:100A6000002303A90390684601F0B6FD09E0A0F554
:100A700000504A461F38002303A90390684601F03E
:100A8000C0FD8DE807000004000C03D04FF0FF30DC
:100A9000410800E01046B8F1000F03D00022009298
:100AA00015461EE0751E05D4FFF7CAFE30326255AA
:100AB0006D1EF9D5B3460122084302D000227F1CE7
:100AC00004E02078302801D100227F1E002A0997F7
:100AD00084D01DE0112D07DAFFF7B2FE30326255E7
:100AE0006D1C50EA0102F5D1084302D00098C8B14C
:100AF0000EE00021681E05E0235C625C6354225412
:100B0000401E491C8142F7DBAB46A81B401E0990E2
:100B1000002004F80B000B98099AC0F80880C0E97F
:100B2000002B7AE711264FF0000857E72DE9F04F28
:100B300088460446D21D22F0070191B0D1E9000198
:100B4000CDE90A0101F094FE02460B98C00F01D0D6
:100B50002D2007E02068810701D52B2002E020210D
:100B600001EAC000032A099001D0072A05DB0346E9
:100B70004146204600F010FB0BE12078800601D5AD
:100B8000E06900E00620B8F1650F814606D0B8F1B3
:100B9000660F18D0B8F1670F70D131E00020B9F1BD
:100BA000110F009001DB112301E009F101030AAAF2
:100BB00001A90CA8FFF7E2FEDDE90C70002609F19F
:100BC0000105834647E001204B4600904FF0004767
:100BD0000AAA01A90CA8FFF7D1FEDDE90DB00C9916
:100BE0005D46002610B909F101000D18B9EB0500AA
:100BF00003D4C0F1FF3609F10105A5EB09002BE094
:100C0000B9F1010F01DA4FF001090020B9F1110F1C
:100C10000090484601DD112300E003460AAA01A91D
:100C20000CA8FFF7ABFEDDE90C704D4600268346AD
:100C3000207800070AD4AB4500DA5D4601A8012DF3
:100C400004DD411911F8011C302907D04F4502DAA3
:100C500017F1040F04DA012082460FE06D1EEEE763
:100C6000002F02DCED1B3E4403E0781CA84200DDAF
:100C70007D1CB81B00F1010A4FF0004720780007E7
:100C800003D4AA4501DB4FF0FF3A0021B7F1004F32
:100C90000DF143088DF8431024D002202B23002FA0
:100CA00001DA7F422D230A21021EA0F1010000DC9F
:100CB0005FB197FBF1FC97FBF1F201FB1C7C17463F
:100CC0000CF1300C08F801CDEEE7A8F1010003703B
:100CD0002188090501D5452100E06521A0F1010821
:100CE00000F8011C09980FA9A1EB0807FF1D00B12E
:100CF0000120411901EBEA70A1693844081A401E2D
:100D0000A0612078C00602D42046FFF7E7FA0998D0
:100D100028B1D4E901219047206A401C2062207844
:100D2000C00622D52046FFF7D9FA1EE0002E04DBCC
:100D3000B34502DD01A8805D00E03020D4E9012147
:100D40009047206A401C2062761CAAF101005FEAED
:100D5000000A0AD100F01CFAC0680168405CD4E9BE
:100D600001219047206A401C2062281EA5F1010540
:100D7000DCDC07E0D4E9012118F8010B9047206A78
:100D8000401C2062381EA7F10107F3DC2046FFF764
:100D9000BBFA032011B041E62DE9F04F04460D46A1
:100DA000D21D22F0070089B0D0E9009748463946A5
:100DB00001F05EFD0246F80F01D02D2307E0206808
:100DC000810701D52B2302E0202101EAC0038DF821
:100DD00020300BB1012000E00020032A824601D020
:100DE000072A04DB2946204600F0D6F93FE12078A7
:100DF000800601D40D2500E0E569C7F30A560D2DE4
:100E000049DA00214FEA175B08464FF00000002F37
:100E100000F4400007DA00EB80004FF4400100EBE3
:100E2000D07001EA60008115012901DD4FF0FF312A
:100E300000224FEA850CBCF1180F06D31346ACF123
:100E400018004FF08052C24003E04FF4801323FAA1
:100E50000CF30CF10C0CBCF1200F04D3ACF1200C02
:100E600009FA0CF001E007FA0CF000294FF00048F5
:100E700001DD18B90FE00ED140450CD319EB020982
:100E80005F4121B9404502D19F4329EA0209BBEBEA
:100E9000175F00D0761C2088000502D57B48784477
:100EA00002E07A487844193808AA302302F80A3058
:100EB000037C0AF10101002E0AF1020A53546A462A
:100EC00002DC4FF0300101E04FF031014FF001083A
:100ED0008DF8001002D0A6F2FF3603E059EA470170
:100EE00000D06B4E002D02DC2178090704D54FF0AD
:100EF00002082E218DF80110C44600210BE0C7F333
:100F000003433F01C35C491C6D1E02F808300529EC
:100F100008F1010801DA002DF1DC00210CE000EB02
:100F20001973491C1B786D1E082902F808304FEA16
:100F3000091908F1010801DA002DF0DC21688B069F
:100F400002D516E0A8F10108E04505DD02EB080333
:100F500013F8013C302BF5D0B8F1000F09DD02EB9E
:100F6000080313F8013C2E2B03D1090701D4A8F183
:100F70000108002D05DD3E2102F808106D1E08F164
:100F80000108407C002E02F8080008F1010804DA8C
:100F90002D20764202F8080002E02B2002F808001B
:100FA0000A214FF47A70864208F101080BDB96FBA8
:100FB000F0F3303302F8083096FBF0F308F1010843
:100FC00000FB136601E0642E0CDB642096FBF0F35B
:100FD000303302F8083096FBF0F308F1010800FB0B
:100FE000136601E00A2E06DB96FBF1F0303002F8C2
:100FF000080008F1010896FBF1F001FB10603030A9
:1010000002F80800A16908F1010808EB050202EBEB
:101010000A00081AA0612078C00602D42046FFF713
:101020005DF9216A08AE01EB0A00206204E0D4E910
:10103000012116F8010B9047BAF1010AF7D2207886
:10104000C00602D52046FFF749F96E4609E016F8BA
:10105000010B3E280FD0D4E901219047206A401CA3
:101060002062B8F10108F2D22046FFF74DF909B02D
:101070000320BDE8F08F206A2844206203E0D4E911
:101080000121302090476D1EEBD3F8E7D21F0000FE
:1010900002FCFFFF10B5436913B1AFF3008001E01C
:1010A000FFF755F9012010BD127800F124010A70F4
:1010B00000224A700122EDE711684FF0FF32E9E7A4
:1010C00010B5436913B1AFF3008001E0FFF7D6F923
:1010D000012010BD128800F1240182840022C28404
:1010E0000122EDE711684FF0FF32E9E72DE9F04109
:1010F00016460C46054600F043F8036893F80101D4
:10110000012807D0FF2C12D8185D80B101202C7067
:10111000BDE8F081D3F807013246214603F20713F8
:10112000C7182846BC46BDE8F041002360474FF091
:10113000FF30EDE7754600F0EBF8AE460500694676
:10114000534620F00700854618B020B5FFF780F819
:10115000BDE820404FF000064FF000074FF00008B8
:101160004FF0000BAC46ACE8C009ACE8C009ACE8F5
:10117000C009ACE8C00921F007018D4670470000A6
:1011800010B500F005F8001D10BD00BF49170000A4
:1011900000487047280000202DE9F0411F46044612
:1011A00003260168072A01F4006004DB08B116A5D4
:1011B00005E016A503E008B115A500E015A521F08E
:1011C00010002060A069C01EA0610FB1401EA06188
:1011D0002046FFF783F84FB1D4E901213846904704
:1011E000206A401C2062C01C206206E0206AFAE7E8
:1011F000D4E9012115F8010B9047761EF8D220465C
:10120000FFF782F8BDE8F0814E414E006E616E003E
:10121000494E4600696E66002DE9F0478146164644
:101220008AB0354878440DC88DE80D0032487844BE
:10123000801C03AC0DC884E80D0041F69B300844C7
:10124000372190FBF1F290FBF1F5A5F1800501FB50
:1012500012041B3C02D56442012000E00020DFF8AC
:1012600098A080460027FA44AAF1BE0A0EE0E007E3
:101270000AD03246684607EB470101230AEB810199
:1012800001F0BFF98DE8070064107F1C002CEED13F
:10129000194F7F44AE3F19E0E80715D007EB041063
:1012A0000DF1180A90E80E008AE80E00C068F042BE
:1012B00001D1981908903246012306A903A801F02C
:1012C000A0F903AB83E807006D10641C002DE3D187
:1012D0004FF0010332466946B8F1000F03A802D06F
:1012E00001F07AF901E001F08CF9C9E90001C9F8CF
:1012F00008200AB0BDE8F087DC1C000010B50446E9
:10130000AFF300802046BDE81040FEF78CBF000020
:1013100000487047080000204FF0013C50F8042BB3
:1013200051F8043B9A4221D1A2EB0C03934313EAF8
:10133000CC1317D150F8042B51F8043B9A4215D125
:10134000A2EB0C03934313EACC130BD150F8042BFC
:1013500051F8043B9A4209D1A2EB0C03934313EAE0
:10136000CC13DBD04FF00000704700BFD01A01BA99
:10137000B1FA81F101F0180122FA01F0CB40DBB2A1
:10138000C0B2C01AC1F120012CFA01F3D11A914365
:1013900011EAC311E6D1704701491820ABBEFEE740
:1013A0002600020070470000B0B5044600F0D0F8F7
:1013B000054600BF00F0CCF8401BA042FAD3B0BDF8
:1013C00080B5EFF3108072B641F21800C4F202004B
:1013D00001684FF6F07241F0010101600820C4F28B
:1013E000010001681140016001680160D0F8F81344
:1013F00041F00101C0F8F813D0F8001441F00101E8
:10140000C0F8001440F20C40C4F20100016841F041
:101410000101016000F08AFC00F070FC62B680BD42
:1014200010B540F21444C4F201042068C00705D08E
:1014300040F27800C2F2000000F006F8206840F0A8
:101440000100206010BD000010B50446007B02289A
:1014500012D0012818BF10BD6068618900F05CF8E7
:1014600001280ED120680021818402212173018886
:1014700041F00101018010BD6068618900F04CF805
:1014800010B10020207310BD2068018821F00101F7
:1014900001800320207310BD10B540F6000CC4F28B
:1014A000010C60450ED041F2000CC4F2010C604505
:1014B0000BD040F6004CC4F2010C604511D14FF046
:1014C000080C04E04FF0040C01E04FF0100C41F266
:1014D000180EC4F2020EDEF8004044EA0C04CEF806
:1014E0000040072901D8890003E0083989B2890042
:1014F00004304FF00F0CD0F800E00CFA01F42EEAA3
:10150000040404608A4041F0020103FA01F1036817
:1015100011431943016010BD8068C84000F001000C
:10152000704700000122C36802FA01F15940C1600E
:101530007047000022B1012A18BF70470C3000E04C
:1015400014300122036802FA01F119430160704767
:1015500040F26C00C2F2000000687047B0B500694C
:1015600040F2740540F28C04C2F20005C2F200049D
:101570002860204600F0FCFB0120FFF715FF2868DB
:1015800001F000FB02460B460EA1204600F02CFCA9
:1015900028680021C4F2A01101F034FB002818BF14
:1015A000B0BD40F29400C2F200000021002200F021
:1015B0005FFD40F2A400C2F200000021002200F012
:1015C00057FDB0BD252E32660000000010B5044660
:1015D000007B032818BF10BD2068808C01F0C1F982
:1015E0004CF29C4246F67203CBF22002C3F6917392
:1015F00001F0CAF901F084F920612046FFF7AEFF3F
:101600000020207310BD0000DDF800C0C0E900120A
:1016100000210381A0F80AC0017301617047000036
:10162000B0B504464068218901220125FFF782FFF9
:101630002046142100F034FA606821890022FFF767
:1016400079FF2573B0BD000042EA4101C9B20182B1
:10165000818A8907FCD500BF818A890741BF818AB9
:10166000018B818A5FEA8171F6D4704745F20041AF
:10167000C4F20001884241F21801C4F2020108D00C
:1016800045F60002C4F20002904207D14FF48002F6
:1016900001E04FF400124B681A434A600A6842F0B6
:1016A00001020A60018841F40041018001886FF362
:1016B000DF310180818841F024018180B421818360
:1016C00025210184018841F001010180704700005B
:1016D000018841F480710180818AC907FCD070477C
:1016E000018841F40071018070470000F0B581B0BD
:1016F0001D4616460F460446FFF7EAFF20463946C8
:101700000022FFF7A1FF00BFA08A0006FCD54DB163
:10171000A08A0006FCD516F8010B013D290620829F
:10172000F6D100BFA08A4007FCD52046FFF7D8FFBE
:1017300001B0F0BD80B500F001F880BD82B041F28B
:1017400004000021C4F202000191009150F8041C31
:1017500041F4803140F8041C50F8041C01F40031BD
:101760000091019901310191009919B90199B1F5DF
:10177000A06FF1D150F8041C890354BF002101214E
:1017800000910099012936D142F20001C4F2020110
:101790000A6842F010020A600A6822F007020A6032
:1017A0000A6842F002020A60016801600168016093
:1017B000016841F480610160016821F47C110160DD
:1017C000016841F4E811016050F8041C41F0807197
:1017D00040F8041C50F8041C8901FBD5016821F075
:1017E00003010160016841F002010160016801F03C
:1017F0000C010829FAD102B07047000080B541F20F
:101800000400C4F2020050F8041C41F4803140F896
:10181000041C00BF50F8041C8903FBD5826942F206
:10182000000142F08052C4F2020182610A6842F073
:1018300012020A600A689206FCD5016841F4E011C0
:1018400041F480610160016841F48031016050F829
:10185000041C41F0807140F8041C00BF50F8041CC7
:101860008901FBD5016841F00201016001680907A7
:10187000FCD500F063F800F029F840F20000C2F255
:101880000000006844F6D351C1F26201A0FB0101DF
:10189000880900F001F880BDB0B501380024B4EB30
:1018A000106F18BFB0BD4EF21005CEF20005686093
:1018B00000F044FA0720AC602860B0BD40F26C0034
:1018C000C2F20000016801310160704741F204007A
:1018D000C4F20200016801F00C01082941F2002164
:1018E000C0F27A0117D102680368C2F38342DB03B6
:1018F00002F1020205D440F60011C0F23D0151434D
:1019000009E003689B0301D4514304E040F6001151
:10191000C0F23D01514340F20002C2F200021160E8
:10192000006842F61C71C0F30310C0F60001085CA9
:10193000116821FA00F010607047000080B541F294
:101940000000C4F202000168002241F001010160C0
:101950004168CFF6FF021140416001684FF6FF7207
:10196000CFF6F66211400160016821F48021016028
:10197000416821F4FE0141604FF41F018160FFF7CF
:10198000D9FE4EF60850CEF200004FF00061016023
:1019900080BD000080B542F61040C4F2010001880D
:1019A00021F0010120F8101900F08AF880BD000034
:1019B00080B51020C4F20000018821F001010180EF
:1019C0004FF0804000F07CF880BD000080B540F210
:1019D0001040C4F20000018821F0010120F8101924
:1019E00000F06EF880BD000080B540F61000C4F233
:1019F0000000018821F0010120F8101900F060F8C2
:101A000080BD000040F2FF73C4F20003984211DC75
:101A1000B0F1804F25D040F20043C4F20003984259
:101A200032D141F21C0CC4F2020CDCF8003043F05D
:101A3000020327E040F60003C4F20003984219D0E5
:101A400042F60043C4F2010398421DD141F21C0C3E
:101A5000C4F2020C5CF8043C43F400634CF8043C10
:101A600012E041F21C0CC4F2020CDCF8003043F02E
:101A7000010307E041F21C0CC4F2020CDCF8003058
:101A800043F00403CCF8003001390185511E8185F3
:101A9000018841F001010180018AC907FCD070472B
:101AA000006800228284028842F00102028000BFA6
:101AB000828C8A42FCD3018821F0010101807047A9
:101AC00080B540F20041C4F20001884200D080BDE0
:101AD00040F2B400C2F2000002680132B2F57A7F2F
:101AE000026038BF80BD0022026001F586300D2102
:101AF000FFF718FD80BD0000B0B542F6004EC4F2FD
:101B0000010E40F6000C7045C4F2000C12D0604586
:101B10001BD040F20044C4F20004A0421DD0B0F13A
:101B2000804F22D141F21C04C4F20204256845F022
:101B3000010519E041F21C04C4F2020454F8045CEB
:101B400045F4006544F8045C0FE041F21C04C4F263
:101B50000204256845F0040506E041F21C04C4F2C5
:101B60000204256845F00205256001390185511EF2
:101B70008185002181848189704541F00101818145
:101B8000018841F0010101800DD0B0F1804F0CD0EF
:101B900060450CD040F20041C4F20001884218BFF9
:101BA000B0BD1D2404E0192402E01C2400E01E2422
:101BB0002046194600F0CAF8204600F0A7F8B0BD4C
:101BC00010B540F2FF7CC4F2000C604541F21C0CE1
:101BD000C4F2020C0DDCB0F1804F27D040F2004E71
:101BE000C4F2000E70452CD1DCF8004044F0020431
:101BF00025E040F6000EC4F2000E70451BD042F600
:101C0000004EC4F2010E70451BD15CF804EC4EF49A
:101C1000006E4CF804EC42F6444EC4F2010EBEF8DD
:101C2000004044F40044AEF800400AE0DCF8004014
:101C300044F0010403E0DCF8004044F00404CCF874
:101C400000405CF8044C013A44F001044CF8044CA8
:101C500002855A1E0139828500220329828425D8F3
:101C6000DFE801F0020A1119018C602241F0010144
:101C7000018400F1180116E0018C41F0100101848B
:101C800000F118010DE0018C602241F480710184A3
:101C900000F11C0107E0018C41F48051018400F146
:101CA0001C014FF4C0420B881A430A80018841F09E
:101CB00001010180018AC907FCD010BD4B1EB0F89C
:101CC0002CC0032B88BF70470CFB02F148F21F5257
:101CD000C5F2EB12A1FB02125209DFE803F0020B7E
:101CE00005083430028070473C3002807047403035
:101CF0000280704738300280704700004EF20010BA
:101D0000CEF200004021016070470000002848BF6B
:101D1000704700F01F01012202FA01F14EF2001299
:101D20004009CEF2000242F8201070474EF2064001
:101D3000CEF2000010210170704700004EF62350D3
:101D4000CEF20000F0210170704700004EF61453EF
:101D500000F00F02CEF2000309011A4400F16043C3
:101D6000B0F1FF3FC8BF03F5644211707047000037
:101D700080B5012100F05CF80220FFF715FB80BD63
:101D800010B50446016040F26800C2F2000001781C
:101D9000227141F0040101702046332100F048F81F
:101DA0002046322100F044F80520FFF7FDFA2046D6
:101DB000012100F03DF80520FFF7F6FA20460C213E
:101DC00000F036F80520FFF7EFFA2046022100F078
:101DD0002FF80520FFF7E8FA2046802100F028F8C8
:101DE000204600F061F810BD82B070B586B001AD3C
:101DF0000446CDE90A230AAA28460092FEF73AFAD9
:101E00002846FEF749FA68B1002600BFA95D2046C2
:101E100000F02CF82846FEF73FFA0E2E02D80136C5
:101E2000B042F3D806B0BDE8704002B07047000081
:101E300080B582B001F0F002090102F10C03083212
:101E40008DF804308DF8052001F10C0203688DF83F
:101E5000062001F1080201798DF8072001AA184631
:101E60000423FFF743FC02B080BD000080B582B0C0
:101E700001F0F002090102F10D0309328DF804307E
:101E80008DF8052001F10D0203688DF8062001F19F
:101E9000090201798DF8072001AA18460423FFF7EB
:101EA00025FC02B080BD000080B540F26801C2F29E
:101EB00000010A7802F0FE030B7042F0080101F005
:101EC000FE01FFF7B5FF80BD82B040F60009C4F205
:101ED0000109FFF793FC40F27805C2F200050026E5
:101EE00028464FF080414A46012300964FF0010BEF
:101EF000FFF78AFB4FF0804048214FF6FF72FFF753
:101F000081FDFFF75DFA4846002100220223FFF71A
:101F1000C3FA4846012103220023FFF7BDFA09F561
:101F200080642046062103220323FFF7B5FA2046EA
:101F3000072103220323FFF7AFFAA9F534473846F8
:101F4000FFF794FB40F28C00C2F2000039462722D2
:101F5000FFF716FF40F2940809F5105AC2F2000884
:101F6000404621460E225346CDF800B000F0AEF8B0
:101F700040F2A40BC2F2000B584621460F225346F2
:101F80000227009700F0A2F8D8F80800B8F80C1063
:101F900048224FF47A73FFF713FEDBF80800BBF812
:101FA0000C1048224FF47A73FFF70AFE48460821C6
:101FB00003220223FFF770FA20460E21032200239A
:101FC000FFF76AFA4846092103220223FFF764FA61
:101FD00020460F2103220023FFF75EFA09F5006077
:101FE0000D2102220023FFF757FAA9F5823048217C
:101FF00040F2E7320123FFF77FFD4846022100222D
:102000000223FFF749FA20460F210022FFF792FA38
:1020100040F2040740F27004C2F20007C2F200046A
:1020200008E000BF2846FFF7D1FA48460221FFF733
:1020300073FA2070FFF78CFA801BC928F2D3284668
:10204000FFF7EEFAFFF784FA3A7806464046012198
:1020500000F00EF83A785846012100F009F8387877
:102060000130C1B24F2988BF1E203870DAE7000066
:10207000B0B51546022904460FD001291AD000290F
:1020800018BFB0BD2068A1880022FFF753FAA068EE
:10209000A1890022FFF712FEB0BD2068A1880122AD
:1020A000FFF748FAA068A189C5F1640292B2FFF770
:1020B00005FEB0BD2068A1880022FFF73BFAA068AA
:1020C000A1892A46FFF7FAFDB0BD0000DDF800C087
:1020D0000160002182808360A0F80CC0C18170473C
:1020E0005FEA400C08BF91F0000F4FEA8C234FEAE3
:1020F000C12243EA51514FEA1C5018BF00F5F0408D
:102100004FEA300018BF41F000415FEA6C5C00F01C
:102110002980BCF1FF3F08BF40F080407047130C9E
:1021200006BF12044FF0100C4FF0000C130E04BF4A
:1021300012020CF1080C130F04BF12010CF1040C75
:10214000930F04BF92000CF1020CD30F04BF520096
:102150000CF1010C11464FF00002A0F11F00A0EBA2
:102160000C00704711F0004F08BF704731F000417C
:102170003FF4D5AF0B0C06BF09044FF0100C4FF025
:10218000000C0B0E04BF09020CF1080C0B0F04BF6E
:1021900009010CF1040C8B0F04BF89000CF1020C37
:1021A000CB0F04BF49000CF1010CCCF1200322FA43
:1021B00003F341EA030102FA0CF2A0EB0C0000F178
:1021C0000100704723F07F4720F07F4C80EA030036
:1021D00000F00040ACEB070303F57C5303F1FF0371
:1021E0002DE9804909B44FEA144324EA03484FEA31
:1021F000154B25EA0B4E0FF2042606EB13273E780B
:1022000003FB0667C7F5000707FB06F64FEAD6464D
:1022100006F102064FEA543707FB066CCCF1005C6E
:102220004FEA1C472CEA074C0CFB06F507FB06F4AB
:1022300004EB15464FEA961649085FEA320234BFAE
:1022400000204FF000404FEAD13706FB07FC4FEA71
:102250001C4C0CFB0BF7D21B03FB0CF761EB0701CB
:102260000CFB0EF7B0EB074072EB17420CFB08F7C4
:1022700034BFA2EB0742B2EB074261EB17414FEAD2
:102280000C444FEA910706FB07FC4FEA1C4C0CFB81
:102290000BF7B0EBC74072EB573203FB0CF734BFC0
:1022A000A2EBC742B2EBC74261EB57310CFB0EF712
:1022B000B0EBC70072EB57720CFB08F734BFA2EB10
:1022C000C702B2EBC70261EB57714FEA816141EA85
:1022D00092114FEA826242EA90124FEA806004EB68
:1022E000CC04039F4FEAD13706FB07FC4FEA1C4C96
:1022F0000CFB0BF7D21B03FB0CF761EB07010CFB8C
:102300000EF7B0EB074072EB17420CFB08F734BF37
:10231000A2EB0742B2EB074261EB17414FEA8C5543
:1023200004EB9C244FEA910706FB07FC4FEA1C4C88
:102330000CFB0BF7B0EBC74072EB573203FB0CF70B
:1023400034BFA2EBC742B2EBC74261EB57310CFB83
:102350000EF7B0EBC70072EB57720CFB08F734BFF7
:10236000A2EBC702B2EBC70261EB57714FEA816182
:1023700041EA92114FEA826242EA90124FEA80608B
:1023800015EB4C2544F100044FEAD13706FB07FC5E
:102390004FEA1C4C0CFB0BF7D21B03FB0CF761EB59
:1023A00007010CFB0EF7B0EB074072EB17420CFB7A
:1023B00008F734BFA2EB0742B2EB074261EB1741CB
:1023C0004FEA813141EA92414FEA823242EA904239
:1023D0004FEA80304FEA0C7615EB1C1544F10004EF
:1023E00048EA03434EEA0B484FF0000EB2EB080CEC
:1023F00071EB030724BF624639464EEB0E0E4FF0D9
:10240000000B0018524149414BEB0B0BB2EB080C8F
:1024100071EB03077BF1000B24BF624639464EEB9C
:102420000E0E4FF0000B0018524149414BEB0B0BC5
:10243000B2EB080C71EB03077BF1000B24BF624683
:1024400039464EEB0E0E51EA020718BF46F0010660
:1024500016EB0E7655F1000254F1000103D5BDE8EC
:102460008901BDE80088BDE88901BDE80048B619CA
:10247000524141EB0101A3F10103704780807F7E4F
:102480007D7C7B7A797877767675747372717170EA
:102490006F6E6E6D6C6C6B6A6A696868676666659C
:1024A0006464636362616160605F5F5E5E5D5D5C2A
:1024B0005C5B5B5A5A59595858575756565555559B
:1024C0005454535352525251515050504F4F4F4EFB
:1024D0004E4D4D4D4C4C4C4B4B4B4A4A4A49494949
:1024E000484848474747474646464545454444448B
:1024F0004443434343424242424141419C46002BB4
:1025000030D477002BD04FEA37071CB503B44FF017
:1025100010004FF01001BAF1000F06D0BCF1000F0F
:10252000DCBF40F0080040F008014FF000000FBC95
:10253000BDE810400BF1010BBBF1010F08BF5FEAD2
:10254000170722BF12F1010211F101014FF0004102
:1025500043F1000300F0004043EA00007047F9D364
:102560005708D0E746EA06464FEA164613F1400FF1
:102570001FDD13F1200FDFBF16430A460021203371
:102580005B42BED0C3F1200746EA06464FEA164634
:1025900002FA07F746EA070622FA03F2C3F1200718
:1025A00001FA07F742EA070221FA03F14FF00003AC
:1025B000A7E746EA020646EA06464FEA164646EA14
:1025C0000106BCBF46EA0646360C4FF000034FF04A
:1025D00000024FF0000194E72DE9804C70B49A4658
:1025E000934691E8380007C831EA400C48BF34EA06
:1025F000430C03D5FFF7E6FDFFF780FFF0BCBDE815
:10260000008C2DE9804C70B49A46934691E83800CE
:1026100007C810F0804F08BF13F0804F03D100F0BF
:1026200005F8FFF76BFFF0BCBDE8008C20F07F479A
:1026300023F07F4C80EA030000F0004007EB0C031E
:10264000A3F57C53A3F1FE0392F0000F00F0B380DA
:1026500095F0000F00F077802DE901494FEA114015
:1026600021EA00484FEA144624EA064700FB06FC2C
:1026700008FB06F607FB08F818EB06484CEB164C6F
:1026800000FB07F718EB07484CEB17404FEA124BDB
:1026900022EA0B4E4FEA154625EA06470BFB06FCDD
:1026A0000EFB06F607FB0EFE1EEB064E4CEB164C21
:1026B0000BFB07F71EEB074E4CEB174B18EB0B0809
:1026C00040F1000018EB0E0B58EB000840F1000041
:1026D0008F1A4FF000014FF000063CBFC943661B44
:1026E00014BFB5EB040C00213CBFC943F61B4FEAF5
:1026F000174427EA04454FEA1C472CEA074C04FB21
:10270000076205FB07F70CFB05F616EB074642EBE5
:10271000174204FB0CFC16EB0C4642EB1C421BEB75
:10272000060658EB020241414EEA8E0E46EA9E062C
:1027300001D5BDE80189B619524141EB0101A3F170
:102740000103BDE801894FEA144524EA05464FEA32
:10275000114721EA074C05FB07F406FB07F70CFBC2
:1027600006F111EB074144EB174405FB0CFC11EBA0
:102770000C4144EB1C444FEA124722EA074C05FB8C
:1027800007F206FB07F70CFB06F616EB074642EBD3
:10279000174205FB0CFC16EB0C4642EB1C456A1875
:1027A00054F1000148BF7047B619524141EB010195
:1027B000A3F10103704795F0000F37D04FEA1142A3
:1027C00021EA02464FEA144724EA074C02FB07F1CC
:1027D00006FB07F70CFB06F414EB074441EB17412B
:1027E00002FB0CFC14EB0C4441EB1C414FEA154777
:1027F00025EA074C02FB07F506FB07F70CFB06F67C
:1028000016EB074645EB174502FB0CFC16EB0C4696
:1028100045EB1C42121951F1000148BF7047B6192F
:10282000524141EB0101A3F1010370474FEA144506
:1028300024EA05464FEA114721EA074C05FB07F158
:1028400006FB07F70CFB06F212EB074241EB1741C0
:1028500005FB0CFC12EB0C4251EB1C414FF0000647
:1028600048BF7047921841EB0101A3F10103704783
:10287000490050EAC12018BF04204A0D18BF40F09B
:10288000010040F2FF72B2EB515F08BF40F002005E
:10289000012808BF0520704730380A2801D20120DE
:1028A000704700207047000010B500290AD0087852
:1028B000002807D005487844FEF72EFD002801D0F7
:1028C000002010BD0248784410BD000096060000AC
:1028D0008E06000010B500290AD00878002807D01D
:1028E00005487844FEF718FD002801D0002010BDEF
:1028F0000248784410BD0000860600007E060000F5
:1029000021F0004201F00043A2F16052B2F5801FB5
:1029100028BFD2F17F6C0BD95FEA001C43EAC202E8
:1029200042EB507018BF704728BF20F0010070477D
:10293000B2F5801FBCBF184670474FEA410C1CF52A
:10294000001F02D2084600F061BA70B500F0C6F868
:1029500000000089FFF7F6BF4FF00040A0F58000AF
:102960007047B0FA80F310FA03F10AD0C3F11D03E7
:1029700003F580634FEA03524FEA415002EBD12145
:1029800070474FF00000704770B5DFF848C11CEA8F
:10299000111E1EBF1CEA13159EEA0C0F95EA0C0FC0
:1029A00000F06F8081EA03044EEAD47EAE4421EA4F
:1029B0004C1123EA4C1341F4801143F48013AEF11F
:1029C0007F7EA1FB024CA0FB0365361955EB0C057D
:1029D000A1FB034C4CF10003A0FB021C16EB0C0600
:1029E000654153F10003094218BF46F0010613F494
:1029F000007F0BD14FEA03314FEA053041EA155110
:102A000040EA165034036FF003020AE04FEAC32194
:102A10004FEAC52041EA555140EA5650F4026FF0A2
:102A2000020202EB2E4201EB025585EACE710AD07A
:102A30005FEA440C18BF24F0004450F1000041F15B
:102A4000000120EAD47040F2FE7C624500D270BDE5
:102A5000A84214BF4FF080444FF04044002E08BFFE
:102A60000024BEF1806FA8BFA1F1C041BDE8704055
:102A700080F2828001F1C04101F000414FF000007E
:102A800070470CEA13159EEA0C0F18BF95EA0C0F5D
:102A900006D081EA030E4FF000000EF0004170BD39
:102AA00000F01CF88900013E00F007B800F009B8FA
:102AB0004FEA430C5FEA5C5C08D081EA030100F056
:102AC0005BB84FEA410C5FEA5C5CF6D102494FF01B
:102AD000000070470000FF070000F87F0EF1020EB3
:102AE0002EF0030E5EF8046B364205D4012A43EB48
:102AF000030515F5001F12D8012841EB010C1CF548
:102B0000001F0CD80ED14FEAD17C0CEB4C0C0CF111
:102B1000020C15F5001F08BF4CEBD37C04E04FF00E
:102B2000080C01E04FEAD37C0CEB4C0526FA05F6C5
:102B300006F00706B6F1040C06D20EEB860CBDE8D3
:102B400070404CF0010C6047DFE80CF0090B02020A
:102B50004FF00041A1F500214FF0000070BD194673
:102B60001046012851EB010418BFD4F5001484BFAE
:102B7000002001F0004170BD0808A0F500114FEAE7
:102B80003101704743004FEAD30C4FEA3C0C4340FD
:102B90001FBF40070CF1605113F0FE4F70471CF04F
:102BA000006F03D10CF00041002070470CF000438F
:102BB00043EA507040EACC0010B500F0E1F800BFE5
:102BC000000000924FEA0001FFF7D6BF4FF000412E
:102BD000A1F500214FF00000704710B500F034F867
:102BE0000CBF0120002010BD10B500F02DF814BF5F
:102BF0000120002010BD10B500F05AF88CBF012054
:102C0000002010BD10B500F053F82CBF01200020AB
:102C100010BD10B500F080F894BF0120002010BD59
:102C200010B500F079F834BF0120002010BD40102D
:102C300058BFC0F14040491058BFC1F140418142E6
:102C4000EFF300807047000050EA010C00F11380A0
:102C50001CF5000F58BFBCF5000F01D48842704727
:102C600007D710F5000F58BF11F5000F15D4884293
:102C70007047894270471CF5000F04D5BCF5000F62
:102C8000F7D5814270474FF0807C1CEB400F38BF76
:102C90001CEB410F01D28142704710B500F070F873
:102CA000922449004FF000504FF08051FFF7BFBF12
:102CB00050EA010C00F113801CF5000F58BFBCF561
:102CC000000F01D48842704707D710F5000F58BF96
:102CD00011F5000F15D488427047894270471CF5E2
:102CE000000F04D5BCF5000FF7D5814270474FF0B7
:102CF000807C1CEB400F38BF1CEB410F01D281429E
:102D0000704710B500F03CF8922449004FF0805015
:102D10004FF00051FFF78BBF50EA010C00F1138018
:102D20001CF5000F58BFBCF5000F01D48842704756
:102D300007D710F5000F58BF11F5000F15D48842C2
:102D40007047894270471CF5000F04D5BCF5000F91
:102D5000F7D5814270474FF0807C1CEB400F38BFA5
:102D60001CEB410F01D28142704710B500F008F80A
:102D7000922449004FF000504FF08051FFF757BFA9
:102D80000EF1020E2EF0030E5EF8044B244204D422
:102D90004FEA4102B2F17F4F11D84FEA4003B3F13D
:102DA0007F4F0CD80ED14FEAD07C0CEB4C0C0CF1C1
:102DB000020CB2F17F4F08BF4CEBD17C04E04FF026
:102DC000080C01E04FEAD17C0CEB4C0324FA03F42D
:102DD00004F00704B4F1040C06D20EEB840CBDE839
:102DE00010404CF0010C6047DFE80CF007080202CD
:102DF0004FF00040A0F5800010BD0846420018BF0B
:102E0000D2F1807288BF00F0004010BDFF2141EA7E
:102E1000D050C0057047FDF789BEFDF7BDBF00006B
:102E20000000000000000000303132333435363706
:102E300038394142434445464030580030313233FE
:102E400034353637383961626364656640307800FE
:102E50000400000800000000000000020001000063
:102E60001030313233343536373839616263646556
:102E70006678700030313233343536373839414274
:102E8000434445465850000002400000000000A0A6
:102E90000000000005400000000000C80000000025
:102EA0000C4000000000409C0000000019400000A1
:102EB0000020BCBE0000000034400000BFC91B8ED3
:102EC00000000004B5400000504BCFD06607E2CFB1
:102ED000010000006C4100003E8251AADFEEA734E1
:102EE00001000000D9420000DCB5A0E23A301F9793
:102EF000FFFFFFFFB4450000FD25A0C8E9A3C14FB7
:102F0000FFFFFFFFFF3F0000000000800000000007
:102F1000FF3F0000000000800000000000000000F3
:102F200000000000010203040607080978300008C9
:102F30000000002008000000280100088030000880
:102F400008000020B0060000440100081C0000003A
:102F500043000000F8FFFFFF0C0000000E0000001F
:102F60000F0000002E0000001001000043000000D0
:102F7000F8FFFFFF0040404040404040404041419A
:102F8000414141404040404040404040404040403E
:102F900040404040400502020202020202020202D8
:102FA00002020202022020202020202020202002D5
:102FB0000202020202029090909090901010101065
:102FC0001010101010101010101010101010101001
:102FD0000202020202028888888888880808080895
:102FE0000808080808080808080808080808080861
:102FF0000202020240000000000000000000000089
:1030000000000000000000000000000000000000C0
:1030100000000000000000000000000000000000B0
:1030200000000000000000000000000000000000A0
:103030000000000000000000000000000000000090
:103040000000000000000000000000000000000080
:103050000000000000000000000000000000000070
:103060000000000000000000000000000000000060
:10307000000000000000000000A24A041E00000042
:04000005080000ED02
:00000001FF
